{
  "_format": "hh-sol-artifact-1",
  "contractName": "Upload",
  "sourceName": "contracts/Upload.sol",
  "abi": [
    {
      "inputs": [
        {
          "internalType": "address",
          "name": "_user",
          "type": "address"
        },
        {
          "internalType": "string",
          "name": "url",
          "type": "string"
        }
      ],
      "name": "add",
      "outputs": [],
      "stateMutability": "payable",
      "type": "function"
    },
    {
      "inputs": [
        {
          "internalType": "address",
          "name": "user",
          "type": "address"
        }
      ],
      "name": "allow",
      "outputs": [],
      "stateMutability": "nonpayable",
      "type": "function"
    },
    {
      "inputs": [
        {
          "internalType": "address",
          "name": "user",
          "type": "address"
        }
      ],
      "name": "disallow",
      "outputs": [],
      "stateMutability": "nonpayable",
      "type": "function"
    },
    {
      "inputs": [
        {
          "internalType": "address",
          "name": "_user",
          "type": "address"
        }
      ],
      "name": "display",
      "outputs": [
        {
          "internalType": "string[]",
          "name": "",
          "type": "string[]"
        }
      ],
      "stateMutability": "view",
      "type": "function"
    },
    {
      "inputs": [
        {
          "internalType": "address",
          "name": "sender",
          "type": "address"
        }
      ],
      "name": "getMessage",
      "outputs": [
        {
          "internalType": "string",
          "name": "",
          "type": "string"
        }
      ],
      "stateMutability": "view",
      "type": "function"
    },
    {
      "inputs": [
        {
          "internalType": "address",
          "name": "",
          "type": "address"
        }
      ],
      "name": "messages",
      "outputs": [
        {
          "internalType": "string",
          "name": "",
          "type": "string"
        }
      ],
      "stateMutability": "view",
      "type": "function"
    },
    {
      "inputs": [
        {
          "internalType": "address",
          "name": "_receiver",
          "type": "address"
        },
        {
          "internalType": "string",
          "name": "message",
          "type": "string"
        }
      ],
      "name": "sendMessage",
      "outputs": [],
      "stateMutability": "payable",
      "type": "function"
    },
    {
      "inputs": [],
      "name": "shareAccess",
      "outputs": [
        {
          "components": [
            {
              "internalType": "address",
              "name": "user",
              "type": "address"
            },
            {
              "internalType": "bool",
              "name": "access",
              "type": "bool"
            }
          ],
          "internalType": "struct Upload.Access[]",
          "name": "",
          "type": "tuple[]"
        }
      ],
      "stateMutability": "view",
      "type": "function"
    }
  ],
  "bytecode": "0x608060405234801561001057600080fd5b50611714806100206000396000f3fe60806040526004361061007b5760003560e01c8063bc8bef811161004e578063bc8bef811461013f578063de6f24bb1461016a578063eb39113f14610186578063ff9913e8146101c35761007b565b806336d6da551461008057806355448fe11461009c5780635fdd59f8146100d9578063a9ed9cb814610116575b600080fd5b61009a60048036038101906100959190610f62565b6101ec565b005b3480156100a857600080fd5b506100c360048036038101906100be9190610fbe565b610261565b6040516100d0919061106a565b60405180910390f35b3480156100e557600080fd5b5061010060048036038101906100fb9190610fbe565b610332565b60405161010d919061106a565b60405180910390f35b34801561012257600080fd5b5061013d60048036038101906101389190610fbe565b6103d2565b005b34801561014b57600080fd5b506101546105f4565b6040516101619190611194565b60405180910390f35b610184600480360381019061017f9190610f62565b6106fd565b005b34801561019257600080fd5b506101ad60048036038101906101a89190610fbe565b61074e565b6040516101ba91906112c2565b60405180910390f35b3480156101cf57600080fd5b506101ea60048036038101906101e59190610fbe565b610964565b005b6000808373ffffffffffffffffffffffffffffffffffffffff1673ffffffffffffffffffffffffffffffffffffffff1681526020019081526020016000208190806001815401808255809150506001900390600052602060002001600090919091909150908161025c91906114fa565b505050565b6060600460008373ffffffffffffffffffffffffffffffffffffffff1673ffffffffffffffffffffffffffffffffffffffff16815260200190815260200160002080546102ad90611313565b80601f01602080910402602001604051908101604052809291908181526020018280546102d990611313565b80156103265780601f106102fb57610100808354040283529160200191610326565b820191906000526020600020905b81548152906001019060200180831161030957829003601f168201915b50505050509050919050565b6004602052806000526040600020600091509050805461035190611313565b80601f016020809104026020016040519081016040528092919081815260200182805461037d90611313565b80156103ca5780601f1061039f576101008083540402835291602001916103ca565b820191906000526020600020905b8154815290600101906020018083116103ad57829003601f168201915b505050505081565b6000600160003373ffffffffffffffffffffffffffffffffffffffff1673ffffffffffffffffffffffffffffffffffffffff16815260200190815260200160002060008373ffffffffffffffffffffffffffffffffffffffff1673ffffffffffffffffffffffffffffffffffffffff16815260200190815260200160002060006101000a81548160ff02191690831515021790555060005b600260003373ffffffffffffffffffffffffffffffffffffffff1673ffffffffffffffffffffffffffffffffffffffff168152602001908152602001600020805490508110156105f0578173ffffffffffffffffffffffffffffffffffffffff16600260003373ffffffffffffffffffffffffffffffffffffffff1673ffffffffffffffffffffffffffffffffffffffff168152602001908152602001600020828154811061051c5761051b6115cc565b5b9060005260206000200160000160009054906101000a900473ffffffffffffffffffffffffffffffffffffffff1673ffffffffffffffffffffffffffffffffffffffff16036105dd576000600260003373ffffffffffffffffffffffffffffffffffffffff1673ffffffffffffffffffffffffffffffffffffffff16815260200190815260200160002082815481106105b8576105b76115cc565b5b9060005260206000200160000160146101000a81548160ff0219169083151502179055505b80806105e89061162a565b91505061046a565b5050565b6060600260003373ffffffffffffffffffffffffffffffffffffffff1673ffffffffffffffffffffffffffffffffffffffff168152602001908152602001600020805480602002602001604051908101604052809291908181526020016000905b828210156106f4578382906000526020600020016040518060400160405290816000820160009054906101000a900473ffffffffffffffffffffffffffffffffffffffff1673ffffffffffffffffffffffffffffffffffffffff1673ffffffffffffffffffffffffffffffffffffffff1681526020016000820160149054906101000a900460ff16151515158152505081526020019060010190610655565b50505050905090565b80600460008473ffffffffffffffffffffffffffffffffffffffff1673ffffffffffffffffffffffffffffffffffffffff168152602001908152602001600020908161074991906114fa565b505050565b60603373ffffffffffffffffffffffffffffffffffffffff168273ffffffffffffffffffffffffffffffffffffffff1614806108105750600160008373ffffffffffffffffffffffffffffffffffffffff1673ffffffffffffffffffffffffffffffffffffffff16815260200190815260200160002060003373ffffffffffffffffffffffffffffffffffffffff1673ffffffffffffffffffffffffffffffffffffffff16815260200190815260200160002060009054906101000a900460ff165b61084f576040517f08c379a0000000000000000000000000000000000000000000000000000000008152600401610846906116be565b60405180910390fd5b6000808373ffffffffffffffffffffffffffffffffffffffff1673ffffffffffffffffffffffffffffffffffffffff168152602001908152602001600020805480602002602001604051908101604052809291908181526020016000905b828210156109595783829060005260206000200180546108cc90611313565b80601f01602080910402602001604051908101604052809291908181526020018280546108f890611313565b80156109455780601f1061091a57610100808354040283529160200191610945565b820191906000526020600020905b81548152906001019060200180831161092857829003601f168201915b5050505050815260200190600101906108ad565b505050509050919050565b60018060003373ffffffffffffffffffffffffffffffffffffffff1673ffffffffffffffffffffffffffffffffffffffff16815260200190815260200160002060008373ffffffffffffffffffffffffffffffffffffffff1673ffffffffffffffffffffffffffffffffffffffff16815260200190815260200160002060006101000a81548160ff021916908315150217905550600360003373ffffffffffffffffffffffffffffffffffffffff1673ffffffffffffffffffffffffffffffffffffffff16815260200190815260200160002060008273ffffffffffffffffffffffffffffffffffffffff1673ffffffffffffffffffffffffffffffffffffffff16815260200190815260200160002060009054906101000a900460ff1615610c165760005b600260003373ffffffffffffffffffffffffffffffffffffffff1673ffffffffffffffffffffffffffffffffffffffff16815260200190815260200160002080549050811015610c10578173ffffffffffffffffffffffffffffffffffffffff16600260003373ffffffffffffffffffffffffffffffffffffffff1673ffffffffffffffffffffffffffffffffffffffff1681526020019081526020016000208281548110610b3c57610b3b6115cc565b5b9060005260206000200160000160009054906101000a900473ffffffffffffffffffffffffffffffffffffffff1673ffffffffffffffffffffffffffffffffffffffff1603610bfd576001600260003373ffffffffffffffffffffffffffffffffffffffff1673ffffffffffffffffffffffffffffffffffffffff1681526020019081526020016000208281548110610bd857610bd76115cc565b5b9060005260206000200160000160146101000a81548160ff0219169083151502179055505b8080610c089061162a565b915050610a8a565b50610da7565b600260003373ffffffffffffffffffffffffffffffffffffffff1673ffffffffffffffffffffffffffffffffffffffff16815260200190815260200160002060405180604001604052808373ffffffffffffffffffffffffffffffffffffffff168152602001600115158152509080600181540180825580915050600190039060005260206000200160009091909190915060008201518160000160006101000a81548173ffffffffffffffffffffffffffffffffffffffff021916908373ffffffffffffffffffffffffffffffffffffffff16021790555060208201518160000160146101000a81548160ff02191690831515021790555050506001600360003373ffffffffffffffffffffffffffffffffffffffff1673ffffffffffffffffffffffffffffffffffffffff16815260200190815260200160002060008373ffffffffffffffffffffffffffffffffffffffff1673ffffffffffffffffffffffffffffffffffffffff16815260200190815260200160002060006101000a81548160ff0219169083151502179055505b50565b6000604051905090565b600080fd5b600080fd5b600073ffffffffffffffffffffffffffffffffffffffff82169050919050565b6000610de982610dbe565b9050919050565b610df981610dde565b8114610e0457600080fd5b50565b600081359050610e1681610df0565b92915050565b600080fd5b600080fd5b6000601f19601f8301169050919050565b7f4e487b7100000000000000000000000000000000000000000000000000000000600052604160045260246000fd5b610e6f82610e26565b810181811067ffffffffffffffff82111715610e8e57610e8d610e37565b5b80604052505050565b6000610ea1610daa565b9050610ead8282610e66565b919050565b600067ffffffffffffffff821115610ecd57610ecc610e37565b5b610ed682610e26565b9050602081019050919050565b82818337600083830152505050565b6000610f05610f0084610eb2565b610e97565b905082815260208101848484011115610f2157610f20610e21565b5b610f2c848285610ee3565b509392505050565b600082601f830112610f4957610f48610e1c565b5b8135610f59848260208601610ef2565b91505092915050565b60008060408385031215610f7957610f78610db4565b5b6000610f8785828601610e07565b925050602083013567ffffffffffffffff811115610fa857610fa7610db9565b5b610fb485828601610f34565b9150509250929050565b600060208284031215610fd457610fd3610db4565b5b6000610fe284828501610e07565b91505092915050565b600081519050919050565b600082825260208201905092915050565b60005b8381101561102557808201518184015260208101905061100a565b60008484015250505050565b600061103c82610feb565b6110468185610ff6565b9350611056818560208601611007565b61105f81610e26565b840191505092915050565b600060208201905081810360008301526110848184611031565b905092915050565b600081519050919050565b600082825260208201905092915050565b6000819050602082019050919050565b6110c181610dde565b82525050565b60008115159050919050565b6110dc816110c7565b82525050565b6040820160008201516110f860008501826110b8565b50602082015161110b60208501826110d3565b50505050565b600061111d83836110e2565b60408301905092915050565b6000602082019050919050565b60006111418261108c565b61114b8185611097565b9350611156836110a8565b8060005b8381101561118757815161116e8882611111565b975061117983611129565b92505060018101905061115a565b5085935050505092915050565b600060208201905081810360008301526111ae8184611136565b905092915050565b600081519050919050565b600082825260208201905092915050565b6000819050602082019050919050565b600082825260208201905092915050565b60006111fe82610feb565b61120881856111e2565b9350611218818560208601611007565b61122181610e26565b840191505092915050565b600061123883836111f3565b905092915050565b6000602082019050919050565b6000611258826111b6565b61126281856111c1565b935083602082028501611274856111d2565b8060005b858110156112b05784840389528151611291858261122c565b945061129c83611240565b925060208a01995050600181019050611278565b50829750879550505050505092915050565b600060208201905081810360008301526112dc818461124d565b905092915050565b7f4e487b7100000000000000000000000000000000000000000000000000000000600052602260045260246000fd5b6000600282049050600182168061132b57607f821691505b60208210810361133e5761133d6112e4565b5b50919050565b60008190508160005260206000209050919050565b60006020601f8301049050919050565b600082821b905092915050565b6000600883026113a67fffffffffffffffffffffffffffffffffffffffffffffffffffffffffffffffff82611369565b6113b08683611369565b95508019841693508086168417925050509392505050565b6000819050919050565b6000819050919050565b60006113f76113f26113ed846113c8565b6113d2565b6113c8565b9050919050565b6000819050919050565b611411836113dc565b61142561141d826113fe565b848454611376565b825550505050565b600090565b61143a61142d565b611445818484611408565b505050565b5b818110156114695761145e600082611432565b60018101905061144b565b5050565b601f8211156114ae5761147f81611344565b61148884611359565b81016020851015611497578190505b6114ab6114a385611359565b83018261144a565b50505b505050565b600082821c905092915050565b60006114d1600019846008026114b3565b1980831691505092915050565b60006114ea83836114c0565b9150826002028217905092915050565b61150382610feb565b67ffffffffffffffff81111561151c5761151b610e37565b5b6115268254611313565b61153182828561146d565b600060209050601f8311600181146115645760008415611552578287015190505b61155c85826114de565b8655506115c4565b601f19841661157286611344565b60005b8281101561159a57848901518255600182019150602085019450602081019050611575565b868310156115b757848901516115b3601f8916826114c0565b8355505b6001600288020188555050505b505050505050565b7f4e487b7100000000000000000000000000000000000000000000000000000000600052603260045260246000fd5b7f4e487b7100000000000000000000000000000000000000000000000000000000600052601160045260246000fd5b6000611635826113c8565b91507fffffffffffffffffffffffffffffffffffffffffffffffffffffffffffffffff8203611667576116666115fb565b5b600182019050919050565b7f596f7520646f6e27742068617665206163636573730000000000000000000000600082015250565b60006116a8601583610ff6565b91506116b382611672565b602082019050919050565b600060208201905081810360008301526116d78161169b565b905091905056fea2646970667358221220f00baf60217a6835db135862548a0deab2337096072c99b71ac10b18007f120c64736f6c63430008110033",
  "linkReferences": {},
  "deployedLinkReferences": {}
}